:020000040800F2
:1000000000000120B53B000891130008931300087D
:1000100095130008971300089913000800000000CA
:10002000000000000000000000000000D1220008D5
:100030009B1300080000000071230008D52300086E
:10004000053C0008053C0008053C0008053C00088C
:10005000053C0008053C0008053C0008053C00087C
:10006000053C0008053C0008053C0008053C00086C
:10007000053C0008053C0008053C0008053C00085C
:10008000053C0008053C0008053C00080000000095
:10009000000000000000000000000000053C000817
:1000A000053C00089D130008053C0008053C0008BD
:1000B000053C0008053C0008053C0008053C00081C
:1000C000053C0008053C0008053C0008053C00080C
:1000D000053C0008053C0008053C00080000000045
:1000E000053C0008053C0008053C00080000000035
:1000F000000000000000000000000000053C0008B7
:1001000000000000053C0008053C0008053C000814
:1001100000000000000000000000000000000000DF
:10012000053C0008053C0008053C0008053C0008AB
:10013000053C000800000000000000000000000076
:10014000000000000000000000000000053C000866
:10015000053C0008053C0008053C0008053C00087B
:10016000053C0008053C00080000000000000000FD
:10017000000000000000000000000000000000007F
:1001800000000000053C0008000000000000000026
:04019000053C000822
:1001C00010B5054C237833B9044B13B10448AFF391
:1001D00000800123237010BDC00900200000000032
:1001E000109C000808B5034B1BB103490348AFF34B
:1001F000008008BD00000000C4090020109C000819
:1002000053B94AB9002908BF00281CBF4FF0FF317D
:100210004FF0FF3000F06EB9ADF1080C6DE904CE7F
:1002200000F006F8DDF804E0DDE9022304B07047D1
:100230002DE9F047089D04468C46002B40F0838052
:100240008A42174647D9B2FA82F242B1C2F120007F
:1002500024FA00F09140974040EA010C94404FEAA4
:100260001748230CBCFBF8F61FFA87FE08FB16C1E3
:1002700043EA014306FB0EF1994209D9FB1806F146
:10028000FF3080F01981994240F21681023E3B44D2
:100290005B1AA4B2B3FBF8F008FB103344EA034442
:1002A00000FB0EFEA64509D93C1900F1FF3380F092
:1002B0000581A64540F2028102383C4440EA0640EE
:1002C000A4EB0E0400261DB1D4400023C5E9004371
:1002D0003146BDE8F08702B9FFDEB2FA82F2002AA9
:1002E00050D1CB1B4FEA174E1FFA87F80126B3FBFC
:1002F000FEFC210C0EFB1C3341EA034108FB0CF30E
:100300008B4207D979180CF1FF3002D28B4200F2F0
:10031000E9808446C91AA3B2B1FBFEF00EFB1011AE
:1003200043EA014408FB00F8A04507D93C1900F155
:10033000FF3302D2A04500F2D9801846A4EB08048E
:1003400040EA0C40BFE78B4209D9002D00F0B18094
:100350000026C5E9000130463146BDE8F087B3FA12
:1003600083F6002E4AD18B4202D3824200F2B8803B
:10037000841A61EB030101208C46002DA8D0C5E949
:10038000004CA5E7C2F1200320FA03F6974001FADA
:1003900002F04FEA174ED9403043030CB1FBFEF692
:1003A0001FFA87F80EFB161143EA014306FB08F11A
:1003B000994204FA02F409D9FB1806F1FF3C80F0D7
:1003C0008D80994240F28A80023E3B445B1A81B2A2
:1003D000B3FBFEF00EFB103341EA034100FB08F3D0
:1003E0008B4207D9791800F1FF3C73D28B4271D947
:1003F00002383944CB1A40EA064678E7C6F1200CA9
:1004000003FA06F422FA0CF31C4320FA0CF701FA63
:1004100006F34FEA144E21FA0CF11F433B0CB1FBDB
:10042000FEF91FFA84F80EFB191143EA014109FB9A
:1004300008FA8A4502FA06F200FA06F308D96118AA
:1004400009F1FF3048D28A4546D9A9F10209214471
:10045000A1EB0A01BFB2B1FBFEF00EFB101147EA9F
:10046000014700FB08F8B84507D9E71900F1FF314B
:100470002ED2B8452CD90238274440EA0940A7EBD0
:100480000807A0FB02894F45C64649461AD317D034
:100490005DB1B3EB0E0267EB010707FA0CFCF2400B
:1004A0004CEA0202F740C5E9002700263146BDE8C4
:1004B000F0872E4628460BE70646E9E61846FDE695
:1004C0004345E5D2B8EB020E69EB04010138DFE7E2
:1004D0000846D2E760468DE78146B9E7664675E78C
:1004E00030464AE7ACF1020C394413E702383C4489
:1004F00024E700BF704700BF844641EA000313F0C1
:1005000003036DD1403A41D351F8043B40F8043B1A
:1005100051F8043B40F8043B51F8043B40F8043BDD
:1005200051F8043B40F8043B51F8043B40F8043BCD
:1005300051F8043B40F8043B51F8043B40F8043BBD
:1005400051F8043B40F8043B51F8043B40F8043BAD
:1005500051F8043B40F8043B51F8043B40F8043B9D
:1005600051F8043B40F8043B51F8043B40F8043B8D
:1005700051F8043B40F8043B51F8043B40F8043B7D
:1005800051F8043B40F8043B403ABDD2303211D31D
:1005900051F8043B40F8043B51F8043B40F8043B5D
:1005A00051F8043B40F8043B51F8043B40F8043B4D
:1005B000103AEDD20C3205D351F8043B40F8043B1D
:1005C000043AF9D2043208D0D2071CBF11F8013B1B
:1005D00000F8013B01D30B8803806046704700BFE1
:1005E000082A13D38B078DD010F003038AD0C3F1F0
:1005F0000403D21ADB071CBF11F8013B00F8013BD2
:1006000080D331F8023B20F8023B7BE7043AD9D390
:10061000013A11F8013B00F8013BF9D20B78037065
:100620004B7843708B788370604670470000000001
:1006300001F0FF01102A2BDB10F0070F08D010F893
:10064000013B013A8B422DD010F0070F42B3F6D197
:10065000F0B441EA012141EA014122F007047FF0B0
:1006600000070023F0E80256083C85EA010586EA07
:10067000010685FA47F5A3FA87F586FA47F6A5FA43
:1006800087F68EB9EED1F0BC01F0FF0102F007024F
:1006900032B110F8013B013A83EA010313B1F8D1FA
:1006A0000020704701387047002D06BF35460338DB
:1006B000073815F0010F07D1013015F4807F02BF14
:1006C000013015F4C03F0130F0BC0138704700BF65
:1006D000000000000000000000000000000000001A
:1006E000000000000000000000000000000000000A
:1006F00000000000000000000000000000000000FA
:1007000090F800F06DE9024520F007016FF0000C51
:1007100010F0070491F820F040F049804FF00004F9
:100720006FF00700D1E9002391F840F000F10800D4
:1007300082FA4CF2A4FA8CF283FA4CF3A2FA8CF30C
:100740004BBBD1E9022382FA4CF200F10800A4FA73
:100750008CF283FA4CF3A2FA8CF3E3B9D1E90423C7
:1007600082FA4CF200F10800A4FA8CF283FA4CF3FE
:10077000A2FA8CF37BB9D1E9062301F1200182FAB8
:100780004CF200F10800A4FA8CF283FA4CF3A2FABE
:100790008CF3002BC6D0002A04BF04301A4612BACC
:1007A000B2FA82F2FDE8024500EBD2007047D1E9CF
:1007B000002304F00305C4F100004FEAC50514F05E
:1007C000040F91F840F00CFA05F562EA05021CBF2F
:1007D00063EA050362464FF00004A9E781F0004197
:1007E00002E000BF83F0004330B54FEA41044FEA16
:1007F000430594EA050F08BF90EA020F1FBF54EAB1
:10080000000C55EA020C7FEA645C7FEA655C00F04C
:10081000E2804FEA5454D4EB5555B8BF6D420CDD1D
:100820002C4480EA020281EA030382EA000083EAA0
:10083000010180EA020281EA0303362D88BF30BD40
:1008400011F0004F4FEA01314FF4801C4CEA113196
:1008500002D0404261EB410113F0004F4FEA0333F5
:100860004CEA133302D0524263EB430394EA050F80
:1008700000F0A780A4F10104D5F1200E0DDB02FAEF
:100880000EFC22FA05F2801841F1000103FA0EF283
:10089000801843FA05F359410EE0A5F120050EF149
:1008A000200E012A03FA0EFC28BF4CF0020C43FA7A
:1008B00005F3C01851EBE37101F0004507D54FF087
:1008C000000EDCF1000C7EEB00006EEB0101B1F5D7
:1008D000801F1BD3B1F5001F0CD349085FEA30001D
:1008E0004FEA3C0C04F101044FEA445212F5800F28
:1008F00080F09A80BCF1004F08BF5FEA500C50F1C5
:10090000000041EB045141EA050130BD5FEA4C0CA7
:10091000404141EB0101013C28BFB1F5801FE9D204
:1009200091F0000F04BF01460020B1FA81F308BF27
:100930002033A3F10B03B3F120020CDA0C3208DDF3
:1009400002F1140CC2F10C0201FA0CF021FA02F1CE
:100950000CE002F11402D8BFC2F1200C01FA02F13E
:1009600020FA0CFCDCBF41EA0C019040E41AA2BF63
:1009700001EB0451294330BD6FEA04041F3C1CDA2B
:100980000C340EDC04F11404C4F1200220FA04F04B
:1009900001FA02F340EA030021FA04F345EA0301F5
:1009A00030BDC4F10C04C4F1200220FA02F001FAB7
:1009B00004F340EA0300294630BD21FA04F0294639
:1009C00030BD94F0000F83F4801306BF81F48011D2
:1009D0000134013D4EE77FEA645C18BF7FEA655C45
:1009E00029D094EA050F08BF90EA020F05D054EA17
:1009F000000C04BF1946104630BD91EA030F1EBF1C
:100A00000021002030BD5FEA545C05D1400049411F
:100A100028BF41F0004130BD14F580043CBF01F512
:100A2000801130BD01F0004545F0FE4141F47001F8
:100A30004FF0000030BD7FEA645C1ABF19461046D3
:100A40007FEA655C1CBF0B46024650EA013406BFD4
:100A500052EA033591EA030F41F4002130BD00BF93
:100A600090F0000F04BF0021704730B54FF4806450
:100A700004F132044FF000054FF0000150E700BFD1
:100A800090F0000F04BF0021704730B54FF4806430
:100A900004F1320410F0004548BF40424FF000011D
:100AA0003EE700BF42004FEAE2014FEA31014FEA60
:100AB00002701FBF12F07F4393F07F4F81F06051AF
:100AC000704732F07F4208BF704793F07F4F04BFFA
:100AD00041F40021704730B54FF4607401F00045D7
:100AE00021F000411CE700BF50EA010208BF704737
:100AF00030B54FF000050AE050EA010208BF704728
:100B000030B511F0004502D5404261EB41014FF490
:100B1000806404F132045FEA915C3FF4D8AE4FF098
:100B200003025FEADC0C18BF03325FEADC0C18BF7B
:100B3000033202EBDC02C2F1200300FA03FC20FACC
:100B400002F001FA03FE40EA0E0021FA02F1144419
:100B5000BDE600BF70B54FF0FF0C4CF4E06C1CEA32
:100B600011541DBF1CEA135594EA0C0F95EA0C0FA3
:100B700000F0DEF82C4481EA030621EA4C5123EA16
:100B80004C5350EA013518BF52EA033541F4801145
:100B900043F4801338D0A0FB02CE4FF00005E1FBF8
:100BA00002E506F00042E0FB03E54FF00006E1FB42
:100BB00003569CF0000F18BF4EF0010EA4F1FF0485
:100BC000B6F5007F64F5407404D25FEA4E0E6D41C5
:100BD00046EB060642EAC62141EA55514FEAC520D6
:100BE00040EA5E504FEACE2EB4F1FD0C88BFBCF552
:100BF000E06F1ED8BEF1004F08BF5FEA500E50F103
:100C0000000041EB045170BD06F0004646EA0101C8
:100C100040EA020081EA0301B4EB5C04C2BFD4EBFA
:100C20000C0541EA045170BD41F480114FF0000EF3
:100C3000013C00F3AB8014F1360FDEBF002001F061
:100C4000004170BDC4F10004203C35DA0C341BDCDB
:100C500004F11404C4F1200500FA05F320FA04F0AD
:100C600001FA05F240EA020001F0004221F00041E1
:100C700010EBD37021FA04F642EB06015EEA430E54
:100C800008BF20EAD37070BDC4F10C04C4F1200584
:100C900000FA04F320FA05F001FA04F240EA020037
:100CA00001F0004110EBD37041F100015EEA430E08
:100CB00008BF20EAD37070BDC4F1200500FA05F228
:100CC0004EEA020E20FA04F301FA05F243EA0203A7
:100CD00021FA04F001F0004121FA04F220EA0200B6
:100CE00000EBD3705EEA430E08BF20EAD37070BDFC
:100CF00094F0000F0FD101F00046400041EB0101DC
:100D000011F4801F08BF013CF7D041EA060195F0BD
:100D1000000F18BF704703F00046520043EB030377
:100D200013F4801F08BF013DF7D043EA0603704764
:100D300094EA0C0F0CEA135518BF95EA0C0F0CD06F
:100D400050EA410618BF52EA4306D1D181EA0301B5
:100D500001F000414FF0000070BD50EA410606BFAF
:100D60001046194652EA430619D094EA0C0F02D1F4
:100D700050EA013613D195EA0C0F05D152EA033639
:100D80001CBF104619460AD181EA030101F0004157
:100D900041F0FE4141F470014FF0000070BD41F0A0
:100DA000FE4141F4780170BD70B54FF0FF0C4CF47A
:100DB000E06C1CEA11541DBF1CEA135594EA0C0F99
:100DC00095EA0C0F00F0A7F8A4EB050481EA030EE6
:100DD00052EA03354FEA013100F088804FEA0333CD
:100DE0004FF0805545EA131343EA12634FEA02229B
:100DF00045EA111545EA10654FEA00260EF000415C
:100E00009D4208BF964244F1FD0404F5407402D2AD
:100E10005B084FEA3202B61A65EB03055B084FEA3E
:100E200032024FF480104FF4002CB6EB020E75EB3B
:100E3000030E22BFB61A754640EA0C005B084FEA63
:100E40003202B6EB020E75EB030E22BFB61A7546E0
:100E500040EA5C005B084FEA3202B6EB020E75EB2B
:100E6000030E22BFB61A754640EA9C005B084FEAA3
:100E70003202B6EB020E75EB030E22BFB61A7546B0
:100E800040EADC0055EA060E18D04FEA051545EA9F
:100E900016754FEA06164FEAC30343EA52734FEA48
:100EA000C2025FEA1C1CC0D111F4801F0BD141EAC1
:100EB00000014FF000004FF0004CB6E711F4801F26
:100EC00004BF01430020B4F1FD0C88BFBCF5E06F06
:100ED0003FF6AFAEB5EB030C04BFB6EB020C5FEA16
:100EE000500C50F1000041EB045170BD0EF0004E6B
:100EF0004EEA113114EB5C04C2BFD4EB0C0541EA9D
:100F0000045170BD41F480114FF0000E013C90E699
:100F100045EA060E8DE60CEA135594EA0C0F08BF5D
:100F200095EA0C0F3FF43BAF94EA0C0F0AD150EA5C
:100F300001347FF434AF95EA0C0F7FF425AF1046EF
:100F400019462CE795EA0C0F06D152EA03353FF417
:100F5000FDAE1046194622E750EA410618BF52EA94
:100F600043067FF4C5AE50EA41047FF40DAF52EA68
:100F700043057FF4EBAE12E74FF0FF3C06E000BF05
:100F80004FF0010C02E000BF4FF0010C4DF804CD12
:100F90004FEA410C7FEA6C5C4FEA430C18BF7FEAD2
:100FA0006C5C1BD001B050EA410C0CBF52EA430C00
:100FB00091EA030F02BF90EA020F0020704710F180
:100FC000000F91EA030F58BF994208BF90422CBF0F
:100FD000D8176FEAE37040F0010070474FEA410C08
:100FE0007FEA6C5C02D150EA013C07D14FEA430C26
:100FF0007FEA6C5CD6D152EA033CD3D05DF8040B97
:10100000704700BF8446104662468C4619466346C8
:1010100000E000BF01B5FFF7B7FF002848BF10F19F
:10102000000F01BD4DF808EDFFF7F4FF0CBF0120E4
:1010300000205DF808FB00BF4DF808EDFFF7EAFF60
:1010400034BF012000205DF808FB00BF4DF808ED1B
:10105000FFF7E0FF94BF012000205DF808FB00BF10
:101060004DF808EDFFF7CEFF94BF012000205DF89A
:1010700008FB00BF4DF808EDFFF7C4FF34BF0120A7
:1010800000205DF808FB00BF4FEA410C7FEA6C5C72
:1010900002D150EA013C0AD14FEA430C7FEA6C5C72
:1010A00002D152EA033C02D14FF0000070474FF0EA
:1010B000010070474FEA410212F5001215D211D516
:1010C0006FF47873B3EB625212D94FEAC12343F045
:1010D000004343EA505311F0004F23FA02F018BFC7
:1010E000404270474FF00000704750EA013005D190
:1010F00011F0004008BF6FF0004070474FF0000053
:10110000704700BF08B54FF40051034800F0F0FAF3
:10111000322001F00DF8F6E7000802400000000060
:1011200000B58BB00023029303930AA3D3E90023F5
:10113000CDE90023064A08210DEB010003F0F8F881
:101140004FF47A7000F0F4FFECE700BFAFF30080DB
:10115000289C000877BE9F1A2FDD5E4008B5074A1D
:101160000021074800F078FF064B1860064A00216E
:10117000064800F071FF064B186008BD509C00083F
:1011800005110008DC090020749C000821110008EA
:10119000E009002030B589B000240394049405943C
:1011A000069407940094194B1A6B42F004021A63D8
:1011B0001A6B02F004020092009A01941A6B42F03A
:1011C00080021A631A6B02F080020192019A029463
:1011D0001A6B42F001021A631B6B03F001030293C6
:1011E000029B0B4D22464FF40051284600F07AFA3C
:1011F0004FF400530393012304930594069403A929
:10120000284600F09BF909B030BD00BF003802400D
:101210000008024030B595B03022002108A802F045
:10122000E7FF002403940494059406940794019422
:101230001C4B1A6C42F080521A641B6C03F08053F2
:101240000193019B0294184A136823F4404343F42A
:1012500000431360136803F440430293029B01238D
:1012600008934FF48033099302250E954FF48003C1
:101270000F9319231093A82311931295042313930A
:1012800008A800F03FFA0F230393049505944FF448
:10129000805306930794294603A800F079FC15B003
:1012A00030BD00BF003802400070004008B500F0BB
:1012B000C5F8FFF7AFFFFFF76DFF00F08BFEFFF7FC
:1012C0004DFF00F0A5FEFEE708B50268034B9A4209
:1012D00000D008BD00F0CCF8FBE700BF004401409F
:1012E00082B0002100910B4B5A6C42F480425A6448
:1012F0005A6C02F480420092009A01911A6C42F0FA
:1013000080521A641B6C03F080530193019B02B05E
:10131000704700BF0038024010B588B00146002277
:10132000192000F0C9F8192000F0FAF800240194FF
:10133000134B5A6C42F400325A645B6C03F4003372
:101340000193019B02A903A800F0E8FC00F0D6FC81
:101350000C4BA3FB00239B0C013B0B480B4A026088
:1013600040F2E732C26043600461846000F016FE20
:1013700010B1012008B010BD034800F0EEFCF9E701
:101380000038024083DE1B43E40900200044014092
:101390007047FEE7FEE7FEE7FEE7704708B5024844
:1013A00000F0F0FC08BD00BFE409002001207047F8
:1013B00008B502F029FC162303604FF0FF3008BD8A
:1013C00008B54FF0FF31FFF7F3FFFEE770B50C46AD
:1013D00016460025B54207DAAFF30080214601F832
:1013E000010B01350C46F5E7304670BD70B50C4673
:1013F00016460025B54205DA14F8010BAFF300805C
:101400000135F7E7304670BD4FF0FF3070474FF4BD
:1014100000534B6000207047012070470020704748
:10142000054BD3F8882042F47002C3F888204FF0AF
:1014300000629A60704700BF00ED00E008B50B4BFA
:101440001A6842F400721A601A6842F480621A60E4
:101450001A6842F480721A60032000F01BF8002022
:10146000FFF75AFFFFF73CFF002008BD003C024099
:10147000034A1168034B1B780B441360704700BF8D
:10148000240A002004000020014B1868704700BFA8
:10149000240A0020074AD36823F4E0631B041B0CD2
:1014A000000200F4E060034343F0BF6343F4003301
:1014B000D360704700ED00E030B4174BDB68C3F336
:1014C0000223C3F10704042C28BF04241D1D062D8C
:1014D00018D9033B4FF0FF3505FA04F421EA040163
:1014E000994005FA03F322EA0303194300280BDBB2
:1014F0000901C9B200F1604000F5614080F80013B5
:1015000030BC70470023E5E700F00F000901C9B2C5
:10151000024B1954F4E700BF00ED00E014ED00E0C9
:10152000002807DB00F01F02400901239340024A14
:1015300042F82030704700BF00E100E000230F2B8D
:1015400000F2C780F0B583B039E0042200E0002249
:10155000B2403A4302345F4E46F824205E4A146893
:10156000EA4324EA05064F6817F4803F01D045EAB4
:101570000406594C2660646802EA04064F6817F4B2
:10158000003F01D045EA0406534C6660A46802EAB5
:1015900004064F6817F4801F01D045EA04064E4C3C
:1015A000A660E46822404E6816F4001F01D045EAA8
:1015B0000402494CE26001330F2B00F288800122C3
:1015C0009A400C6804EA020532EA0404F3D14C683C
:1015D000661E012E03D9112C01D0122C12D186685F
:1015E0005F000324BC4026EA0406CC68BC403443B8
:1015F0008460466826EA02064C68C4F300129A40EA
:1016000032434260C7685E000324B440E24327EAE5
:1016100004078C68B4403C43C4604C68022C01D081
:10162000122C13D1DF08083750F827E003F0070425
:101630004FEA840C0F2404FA0CF42EEA040E0C6911
:1016400004FA0CF444EA0E0440F8274004681440FD
:101650004A6802F00302B240224302604A6812F074
:10166000805FA8D0002201921C4A546C44F480444C
:101670005464526C02F480420192019A9C08A61CA8
:10168000144A52F8267003F0030296000F22B2406B
:1016900027EA0207124A90423FF459AF02F58062EE
:1016A00090420ED002F5806290420CD002F580622A
:1016B00090420AD002F5806290423FF446AF072282
:1016C00046E7012244E7022242E7032240E703B053
:1016D000F0BD704700380140003C01400038024036
:1016E000000002400AB181617047090481617047BE
:1016F000436931EA030301D08161704709048161C4
:1017000070470000002800F0D98170B582B004460F
:10171000036813F0010F3BD0A64B9B6803F00C034A
:10172000042B2CD0A34B9B6803F00C03082B21D077
:101730006368B3F5803F4FD0B3F5A02F52D09D4BD7
:101740001A6822F480321A601A6822F480221A6021
:101750006368002B50D0FFF797FE0546954B1B683A
:1017600013F4003F14D1FFF78FFE401B6428F5D916
:101770000320AAE18F4B5B6813F4800FD8D08D4B08
:101780001B6813F4003F03D06368002B00F09881BE
:10179000236813F0020F54D0864B9B6813F00C0F94
:1017A0003ED0844B9B6803F00C03082B33D0E368D6
:1017B000002B67D0804B01221A60FFF765FE0546BB
:1017C0007C4B1B6813F0020F53D1FFF75DFE401BEB
:1017D0000228F5D9032078E1764A136843F4803370
:1017E0001360B5E7734B1A6842F480221A601A68D6
:1017F00042F480321A60ABE7FFF746FE05466D4BB8
:101800001B6813F4003FC3D0FFF73EFE401B642863
:10181000F5D9032059E1674B5B6813F4800FC6D1FB
:10182000644B1B6813F0020F03D0E368012B40F0F8
:101830004981604A136823F0F803216943EAC10330
:101840001360236813F0080F40D0636963B35B4BE8
:1018500001221A60FFF718FE0546564B5B6F13F026
:10186000020F33D1FFF710FE401B0228F5D90320E9
:101870002BE1504A136823F0F803216943EAC103BE
:101880001360DEE74C4B00221A60FFF7FDFD0546B2
:10189000484B1B6813F0020FD3D0FFF7F5FD401B38
:1018A0000228F5D9032010E1444B00221A60FFF70B
:1018B000EBFD05463F4B5B6F13F0020F06D0FFF7C1
:1018C000E3FD401B0228F5D90320FEE0236813F056
:1018D000040F78D0374B1B6C13F0805F0DD10023C1
:1018E0000193344B1A6C42F080521A641B6C03F063
:1018F00080530193019B012500E00025304B1B68BC
:1019000013F4807F21D0A368012B32D0052B36D071
:10191000284B1A6F22F001021A671A6F22F0040294
:101920001A67A368002B34D0FFF7AEFD0646214BA3
:101930001B6F13F0020F45D1FFF7A6FD801B41F28C
:1019400088339842F3D90320BFE01D4A136843F45B
:1019500080731360FFF798FD0646194B1B6813F45C
:10196000807FD0D1FFF790FD801B0228F5D903209E
:10197000ABE0104A136F43F001031367D1E70D4B3F
:101980001A6F42F004021A671A6F42F001021A67D6
:10199000C7E7FFF779FD0646064B1B6F13F0020FF2
:1019A00010D0FFF771FD801B41F288339842F3D9C4
:1019B00003208AE00038024000004742800E474280
:1019C00000700040E5B9A369002B7DD0464A9268BB
:1019D00002F00C02082A51D0022B17D0434B0022F0
:1019E0001A60FFF751FD04463F4B1B6813F0007F60
:1019F00042D0FFF749FD001B0228F5D9032064E01F
:101A0000394A136C23F080531364DCE7374B002210
:101A10001A60FFF739FD0546334B1B6813F0007F52
:101A200006D0FFF731FD401B0228F5D903204CE01A
:101A3000E369226A1343626A43EA8213A26A520884
:101A4000013A43EA0243E26A43EA0263264A5360E8
:101A5000264B01221A60FFF717FD0446224B1B6834
:101A600013F0007F06D1FFF70FFD001B0228F5D908
:101A700003202AE0002028E0002026E0012B26D0C9
:101A8000194B5B6803F48001E269914221D103F0B4
:101A90003F02216A8A421ED1616A47F6C0721A402B
:101AA0008A421AD103F44032A16A8A4217D103F064
:101AB0007063E26A934214D1002006E0012070476F
:101AC000012002E0012000E0002002B070BD0120F2
:101AD000FBE70120F9E70120F7E70120F5E7012006
:101AE000F3E70120F1E700BF003802406000474201
:101AF000F8B5244B9B6803F00C03042B3DD0082B56
:101B00003DD1204B5A6802F03F025B6813F4800F0E
:101B100012D01C4B5968C1F3881100231A48A1FB4D
:101B20000001FEF76DFB174B5B68C3F30143013304
:101B30005B00B0FBF3F023E0124B5B68C3F3881348
:101B40005C010025E41A65F10005AE0146EA9466E1
:101B5000A701381B66EB0501CC0044EA5074C500B0
:101B6000E81844F100018B0243EA905384022046B6
:101B700019460023FEF744FBD5E7034800E003487D
:101B8000F8BD00BF0038024040787D010024F40019
:101B9000002800F09B8070B50D4604464F4B1B6833
:101BA00003F00F038B4208D2CBB24C4A1370136878
:101BB00003F00F038B4240F08B80236813F0020F79
:101BC00017D013F0040F04D0454A936843F4E05350
:101BD0009360236813F0080F04D0414A936843F4DC
:101BE000604393603E4A936823F0F003A1680B437F
:101BF0009360236813F0010F32D06368012B21D06A
:101C00009A1E012A25D9364A126812F0020F61D0B5
:101C100033498A6822F0030213438B60FFF734FCD8
:101C200006462F4B9B6803F00C036268B3EB820FF0
:101C300016D0FFF729FC801B41F288339842F0D977
:101C4000032042E0264A126812F4003FE0D101204E
:101C50003BE0234A126812F0007FD9D1012034E022
:101C60001E4B1B6803F00F03AB4207D9EAB21B4BB4
:101C70001A701B6803F00F03AB422DD1236813F0D9
:101C8000040F06D0164A936823F4E053E1680B432F
:101C90009360236813F0080F07D0114A936823F468
:101CA0006043216943EAC1039360FFF721FF0C4BB6
:101CB0009B68C3F303130B4AD35CD8400A4B1860EC
:101CC0000A4B1868FFF728FB002070BD0120704701
:101CD0000120FAE70120F8E70120F6E7003C024086
:101CE00000380240989C00080000002008000020F6
:101CF000014B1868704700BF0000002008B5FFF7CF
:101D0000F7FF044B9B68C3F34233034AD35CD840CC
:101D100008BD00BF00380240A89C00080F230360E4
:101D20000B4B9A6802F0030242609A6802F0F002DC
:101D300082609A6802F4E052C2609B68DB0803F498
:101D4000E0530361034B1B6803F00F030B60704704
:101D500000380240003C024070470268D36843F0FC
:101D60000103D3600268936803F00703062B03D0D6
:101D7000136843F0010313600020704770477047F9
:101D80007047704710B5044603681A6912F0020FD5
:101D900011D0DA6812F0020F0DD06FF002021A6152
:101DA0000123037703689B6913F0030F70D0FFF7DB
:101DB000E6FF0023237723681A6912F0040F12D07C
:101DC000DA6812F0040F0ED06FF004021A610223D9
:101DD000237723689B6913F4407F5FD02046FFF789
:101DE000CEFF0023237723681A6912F0080F12D060
:101DF000DA6812F0080F0ED06FF008021A6104239F
:101E000023772368DB6913F0030F4ED02046FFF7DA
:101E1000B6FF0023237723681A6912F0100F12D03F
:101E2000DA6812F0100F0ED06FF010021A6108235A
:101E300023772368DB6913F4407F3DD02046FFF70A
:101E40009EFF0023237723681A6912F0010F03D045
:101E5000DA6812F0010F36D123681A6912F0800F88
:101E600003D0DA6812F0800F34D123681A6912F0B7
:101E7000400F03D0DA6812F0400F32D123681A699C
:101E800012F0200F03D0DA6812F0200F30D110BD0D
:101E9000FFF774FF2046FFF773FF8AE72046FFF73E
:101EA0006DFF2046FFF76CFF9BE72046FFF766FFBC
:101EB0002046FFF765FFACE72046FFF75FFF2046AF
:101EC000FFF75EFFBDE76FF001021A612046FFF7E2
:101ED000FBF9C1E76FF080021A61204600F079F843
:101EE000C3E76FF040021A612046FFF74AFFC5E7DB
:101EF0006FF020021A61204600F06AF8C7E7000080
:101F00000368254A90420ED0B0F1804F0BD0A2F565
:101F10007C42904207D002F58062904203D002F5E5
:101F20008062904203D123F070034A6813431A4A37
:101F300090421AD0B0F1804F17D0A2F57C42904267
:101F400013D002F5806290420FD002F58062904279
:101F50000BD002F59A32904207D002F5806290428F
:101F600003D002F58062904203D123F44073CA6823
:101F7000134323F080034A69134303608B68C362F1
:101F80000B688362044B984202D00123436170477F
:101F90000B690363F9E700BF00000140B0B110B561
:101FA000044690F83D3063B1022384F83D30214669
:101FB00051F8040BFFF7A4FF012384F83D30002003
:101FC00010BD80F83C30FFF7C7FEEDE701207047F9
:101FD00070477047EFF305837BB9EFF3108313B9B4
:101FE000EFF311831BB1094B1B68022B08D0074B81
:101FF000186840B901221A6070476FF005007047F9
:102000006FF0050070474FF0FF307047B0100020B0
:1020100008B5EFF30583A3B9EFF3108313B9EFF31A
:1020200011831BB10B4B1B68022B0DD0094B1B6896
:10203000012B0CD1074B02221A6001F089F8002015
:1020400008BD6FF00500FBE76FF00500F8E74FF003
:10205000FF30F5E7B0100020F0B587B000240594FC
:10206000EFF30584002C39D1EFF3108313B9EFF3AC
:1020700011831BB12D4B1B68022B2FD070B32AB3D9
:102080001568936903B918235C1E372C4AD8546825
:1020900014F0010F48D1566976B14FEA960C946856
:1020A00034B1D768B7F5916F02D3176907B1C6B9D4
:1020B0002CB14FF0FF340EE04FF0800CEFE7D46806
:1020C0008CB9146994B14FF0FF3404E01546002434
:1020D00018234FF0800C012C0AD0ACB1059807B042
:1020E000F0BD0124F7E74FF0FF34F4E70024F2E7F6
:1020F000146992680292019400930B466246294645
:1021000000F0B4FF0590E9E705AA019200930B46A1
:102110001FFA8CF2294600F0E5FF0128DED00023EB
:102120000593DBE70020DAE70020D8E7B0100020B5
:1021300008B5EFF3058383B9EFF3108313B9EFF319
:1021400011831BB1084B1B68022B09D008B9002072
:1021500008BD01F067F90020FAE76FF00500F7E726
:102160006FF00500F4E700BFB0100020034B0360E0
:10217000034B0B6080231360704700BF280C0020C6
:10218000280A0020034B0360034B0B604FF480735D
:1021900013607047B8140020B410002000F1080349
:1021A00043604FF0FF328260C3600361002303602D
:1021B000704700230361704743684B609A688A60E8
:1021C000516099600861036801330360704730B45F
:1021D0000D68B5F1FF3F11D000F108031C465B68A4
:1021E0001A68AA42FAD963684B6099608C60616092
:1021F000086103680133036030BC70470469F2E78B
:102200000369416882688A60416851605A68824205
:1022100006D0002202611A68013A1A6018687047F5
:1022200082685A60F5E7000082B0002301930D4BED
:102230001B68B3F1FF3F08D04FF0500383F31188C0
:10224000BFF36F8FBFF34F8FFEE74FF0500383F361
:102250001188BFF36F8FBFF34F8F019B002BFCD012
:1022600002B070470C00002008480068006880F346
:1022700008884FF0000080F3148862B661B6BFF39F
:102280004F8FBFF36F8F00DF00BF000008ED00E04D
:10229000DFF80C00016841F4700101607047000034
:1022A00088ED00E04FF0807340F8043C21F001011C
:1022B00040F8081C054B40F80C3C40F8202C6FF00F
:1022C000020340F8243C4438704700BF292200082C
:1022D000074B19680868B0E8F04F80F30988BFF32E
:1022E0006F8F4FF0000080F311887047AFF30080CC
:1022F000941900204FF0500383F31188BFF36F8FC0
:10230000BFF34F8F0A4A136801331360012B00D0CB
:102310007047084B1B6813F0FF0FF9D04FF05003C4
:1023200083F31188BFF36F8FBFF34F8FFEE700BFBA
:102330000C00002004ED00E0094B1B6843B94FF08E
:10234000500383F31188BFF36F8FBFF34F8FFEE706
:10235000013B034A13600BB983F31188704700BF38
:102360000C00002000000000000000000000000041
:10237000EFF30980BFF36F8F154B1A681EF0100F33
:1023800008BF20ED108A20E9F04F10602DE9090008
:102390004FF0500080F31188BFF34F8FBFF36F8F62
:1023A00001F066F84FF0000080F3118809BC19684D
:1023B0000868B0E8F04F1EF0100F08BFB0EC108AAC
:1023C00080F30988BFF36F8F704700BFAFF30080C1
:1023D0009419002008B54FF0500383F31188BFF320
:1023E0006F8FBFF34F8F00F015FF18B1034B4FF005
:1023F00080521A60002383F3118808BD04ED00E0C9
:10240000084A0023136008490B60084B1B68084901
:10241000A1FB03139B09013B06490B6007231360D3
:10242000704700BF10E000E018E000E0000000206E
:10243000D34D621014E000E03A4B1A683A4B9A42CE
:1024400029D0384B1A68394B9A422DD010B582B03A
:10245000374B1A78D2B20192FF221A701B78DBB286
:102460008DF803309DF8033003F05003314A1370A8
:10247000314B07221A609DF8033013F0800F1CD0F7
:102480002D4A1368013B13609DF803305B00DBB2FB
:102490008DF80330EFE74FF0500383F31188BFF35B
:1024A0006F8FBFF34F8FFEE74FF0500383F3118818
:1024B000BFF36F8FBFF34F8FFEE71F4B1B68032BDC
:1024C00008D04FF0500383F31188BFF36F8FBFF331
:1024D0004F8FFEE71B0203F4E063174A1360019B72
:1024E000DBB2134A1370154B1A6842F470021A607B
:1024F0001A6842F070421A60FFF782FF0024104B06
:102500001C60FFF7C5FE0F4A136843F04043136099
:10251000FFF7AAFE00F0ACFFFFF786FE204602B0F0
:1025200010BD00BF00ED00E071C20F4170C20F414D
:1025300000E400E0401900204419002020ED00E0F4
:102540000C00002034EF00E0EFF305830F2B0FD9D0
:10255000104A9B5CDBB2104A12789A4208D94FF0BD
:10256000500383F31188BFF36F8FBFF34F8FFEE7E4
:102570000A4B1B6803F4E063094A1268934208D9C6
:102580004FF0500383F31188BFF36F8FBFF34F8F6A
:10259000FEE77047F0E300E0401900200CED00E09A
:1025A00044190020F8B506460C46174B1B6843B982
:1025B000164B174A9B1AA3F58063164A1360124AFA
:1025C000136001F075F8012815D0134F00F014FEC8
:1025D000124B1D682B19BB420FD8104A13600D4ACD
:1025E00013681B1B13600E4B19682144196000F01F
:1025F0009DFE2846F8BD6F46E8E70C23336000F0E7
:1026000095FE4FF0FF35F4E7481900200000012047
:10261000182000204C19002000FC00201000002091
:102620005019002008B5EFF3058313B900F0E4FD5D
:1026300008BD4FF0500383F31188BFF36F8FBFF3D2
:102640004F8FFEE708B500F071FE08BD08B501F038
:1026500005FB08BD08B501F009FB08BD10B504462F
:10266000FFF748FEA26BE36B9A4204D00024FFF709
:1026700063FE204610BD0124F9E710B50446FFF7BC
:1026800039FEA36B23B90124FFF756FE204610BD87
:102690000024F9E770B504461546866B026C5AB9FA
:1026A00003681BB100200136A66370BD806801F08D
:1026B0000FF80023A360F6E76DB94068FDF71CFF33
:1026C000226C636813446360A268934219D3236841
:1026D00063602846E7E7C068FDF70EFF226C5142B1
:1026E000E3689B1AE3602268934202D2A3680B441A
:1026F000E360022D01D00020D5E726B1013E002085
:10270000D1E72846CFE70020CDE70346026C6AB147
:1027100010B50846D9681144D9609C68A14201D31C
:102720001968D960D968FDF7E7FE10BD704738B564
:102730000546FFF7DFFD95F8454064B203E000F081
:10274000B1FF013C64B2002C08DD6B6A33B105F1C6
:10275000240000F013FF0028F3D0F0E7FF2385F8F2
:102760004530FFF7E9FDFFF7C5FD95F8444064B239
:1027700003E000F097FF013C64B2002C08DD2B69F8
:1027800033B105F1100000F0F9FE0028F3D0F0E7B6
:10279000FF2385F84430FFF7CFFD38BD38B5E0B1F1
:1027A0000D460446FFF7A6FD2168E26B236C03FB90
:1027B0000210A0600020A0636160013A02FB0313D5
:1027C000E360FF2384F8443084F84530EDB9236991
:1027D00063B9FFF7B1FD012038BD4FF0500383F31B
:1027E0001188BFF36F8FBFF34F8FFEE704F1100026
:1027F00000F0C4FE0028ECD0084B4FF080521A6065
:10280000BFF34F8FBFF36F8FE3E704F11000FFF7C3
:10281000C5FC04F12400FFF7C1FCDAE704ED00E099
:1028200038B51D46049C0B4649B92460E063236417
:1028300001212046FFF7B2FF84F84C5038BD2260DA
:10284000F4E740B94FF0500383F31188BFF36F8F63
:10285000BFF34F8FFEE730B585B01C46054653B138
:1028600092B189B94FF0500383F31188BFF36F8F92
:10287000BFF34F8FFEE74FF0500383F31188BFF390
:102880006F8FBFF34F8FFEE76AB150230393039B13
:10289000502B13D04FF0500383F31188BFF36F8F89
:1028A000BFF34F8FFEE70029EFD04FF0500383F3C3
:1028B0001188BFF36F8FBFF34F8FFEE7039B012398
:1028C00084F8463000949DF820302846FFF7A8FF92
:1028D000204605B030BD0000F0B585B0019288B14A
:1028E0000E461D460446B1B1022D20D1E36B012BEB
:1028F0001DD04FF0500383F31188BFF36F8FBFF3E8
:102900004F8FFEE74FF0500383F31188BFF36F8FB3
:10291000BFF34F8FFEE7036C002BE5D04FF0500361
:1029200083F31188BFF36F8FBFF34F8FFEE700F083
:10293000BFFE074658B9019B002B44D04FF050030F
:1029400083F31188BFF36F8FBFF34F8FFEE700272C
:1029500039E02A4631462046FFF79CFE626A6AB992
:1029600038B13C4B4FF080521A60BFF34F8FBFF32A
:102970006F8FFFF7E1FC012005B0F0BD04F12400EA
:1029800000F0FCFD0028F4D0324B4FF080521A606A
:10299000BFF34F8FBFF36F8FEBE7FFF7CDFC002046
:1029A000EAE702A800F030FE012719E0002384F8CE
:1029B000443021E0002384F8453023E02046FFF72F
:1029C000B6FE00F0B3FCFFF795FCA26BE36B9A42F6
:1029D000BFD3022DBDD0019B002BDED0002FE0D055
:1029E000FFF7AAFC00F008FCFFF784FC94F84430E1
:1029F0005BB2B3F1FF3FD9D094F845305BB2B3F18D
:102A0000FF3FD7D0FFF798FC01A902A800F008FE0D
:102A1000C8B92046FFF722FE0028CFD0019904F163
:102A2000100000F077FD2046FFF781FE00F07EFCED
:102A30000028C8D1074B4FF080521A60BFF34F8F68
:102A4000BFF36F8FBFE72046FFF771FE00F06EFC0B
:102A5000002091E704ED00E02DE9F84390B18946AC
:102A600090461F460446B1B1022F20D1E36B012BE3
:102A70001DD04FF0500383F31188BFF36F8FBFF366
:102A80004F8FFEE74FF0500383F31188BFF36F8F32
:102A9000BFF34F8FFEE7036C002BE5D04FF05003E0
:102AA00083F31188BFF36F8FBFF34F8FFEE7FFF7FC
:102AB0004BFDEFF311864FF0500383F31188BFF302
:102AC0006F8FBFF34F8FA26BE36B9A4206D3022F37
:102AD00004D0002086F31188BDE8F88394F84550AF
:102AE0006DB23A4649462046FFF7D4FDB5F1FF3FA7
:102AF00005D06B1C5BB284F845300120EAE7636ABD
:102B00000BB90120E6E704F1240000F037FD30B1F5
:102B1000B8F1000F05D00120C8F80000DAE7012065
:102B2000D8E70120D6E70000F0B585B0019290B15A
:102B30000E460446C1B100F0BBFD074600BB019B39
:102B4000002B5CD04FF0500383F31188BFF36F8FDD
:102B5000BFF34F8FFEE74FF0500383F31188BFF3AD
:102B60006F8FBFF34F8FFEE7036C002BE3D04FF066
:102B7000500383F31188BFF36F8FBFF34F8FFEE7CE
:102B800000273CE031462046FFF7BFFD013DA5632D
:102B9000236923B9FFF7D0FB012005B0F0BD04F194
:102BA000100000F0EBFC0028F4D0354B4FF08052C1
:102BB0001A60BFF34F8FBFF36F8FEBE7FFF7BCFBDC
:102BC0000020EAE702A800F01FFD012721E0002312
:102BD00084F8443029E0002384F845302BE0204677
:102BE000FFF7A5FD00F0A2FB09E02046FFF79FFDDF
:102BF00000F09CFB2046FFF740FD00283DD1FFF789
:102C000079FBA56B002DBDD1019B002BD6D0002FE9
:102C1000D8D0FFF791FB00F0EFFAFFF76BFB94F8C9
:102C200044305BB2B3F1FF3FD1D094F845305BB292
:102C3000B3F1FF3FCFD0FFF77FFB01A902A800F05F
:102C4000EFFC0028D1D12046FFF717FD0028C6D0A1
:102C5000019904F1240000F05DFC2046FFF767FDB8
:102C600000F064FB0028CAD1054B4FF080521A6077
:102C7000BFF34F8FBFF36F8FC1E700208DE700BF19
:102C800004ED00E0002300E00133072B0BD8064AD7
:102C900052F83320002AF7D1034A42F8331002EBEE
:102CA000C3035860704770475419002070B504463C
:102CB0000D461646FFF71EFB94F844305BB2B3F1A5
:102CC000FF3F0DD094F845305BB2B3F1FF3F0BD01E
:102CD000FFF732FBA36B5BB12046FFF728FD70BD09
:102CE000002384F84430EDE7002384F84530EFE713
:102CF0003246294604F1240000F024FCECE70000F1
:102D0000084B1B681B6823B9074B4FF0FF321A6052
:102D10007047044B1B68DB68DB685A68024B1A601B
:102D2000704700BF98190020401E00202DE9F04791
:102D300080460D4617469946089EDDF824A00A9C59
:102D40009200A521206B01F053FA236B07F180421A
:102D5000013A03EB820727F00707002D5FD000221E
:102D60000F2A07D8A95CA31883F83410AB5C0BB109
:102D70000132F5E7002384F84330372E00D9372697
:102D8000E662E66400252565201DFFF712FA04F1CE
:102D90001800FFF70EFA2461C6F13806A6616462D6
:102DA000C4F8805484F884544FF48562294604F1B1
:102DB000580001F01DFA04F55173E36504F56B73D7
:102DC000236604F21443636601220023C4E940230E
:102DD00043F20E33A4F808314AF6CD33A4F80A3191
:102DE00041F23423A4F80C314EF26D63A4F80E3195
:102DF0004DF6EC63A4F810310523A4F812310B232F
:102E0000A4F814314A4641463846FFF74BFA206091
:102E1000BAF1000F01D0CAF80040BDE8F0870023E6
:102E200084F83430A9E7000038B50024372C08D8DE
:102E300004EB840293000E481844FFF7AFF9013405
:102E4000F4E70C4D2846FFF7A9F90B4C2046FFF795
:102E5000A5F90A48FFF7A2F90948FFF79FF90948C1
:102E6000FFF79CF9084B1D60084B1C6038BD00BF84
:102E7000A0190020181E00202C1E0020481E002033
:102E8000741E0020601E0020981900209C1900204C
:102E900010B50446FFF72EFA214A13680133136078
:102EA000204B1B685BB1204B1B686BB91D4B1B682B
:102EB000DA6AE36A9A4207D81A4B1C6004E0194B9D
:102EC0001C601368012B27D0184A13680133136064
:102ED0006364E06A164B1B68984201D9144B186072
:102EE00000EB8000211D134B03EB8000FFF764F91A
:102EF000FFF722FA0C4B1B686BB10A4B1B68DA6AAE
:102F0000E36A9A4207D20C4B4FF080521A60BFF32B
:102F10004F8FBFF36F8F10BDFFF786FFD4E700BF61
:102F2000001E0020941900205C1E0020101E0020AE
:102F3000141E0020A019002004ED00E010B5044686
:102F4000583001F0B3F994F8853463B1012B11D0F6
:102F5000022B0ED04FF0500383F31188BFF36F8F15
:102F6000BFF34F8FFEE7206BFFF774FB2046FFF7A0
:102F700071FB10BD2046FFF76DFBFAE70F4B1B6896
:102F8000D3B110B5FFF7B6F90D4BDB68DC68201D37
:102F9000FFF736F90B4A1368013B1360074A1368C1
:102FA000013B1360FFF7C8F92046FFF7C7FF034B4B
:102FB0001B68002BE6D110BD704700BF041E002027
:102FC000741E0020001E002008B5FFF7D7FF064B37
:102FD0001B68012BF9D9054B4FF080521A60BFF3E3
:102FE0004F8FBFF36F8FF0E7A019002004ED00E0D2
:102FF00070B504460D46174B1E68174B1868043011
:10300000FFF7FEF8B4F1FF3F0DD03444124B1B68BC
:103010005C60A64210D9114B18680F4B1968043137
:10302000FFF7D5F870BD002DEFD00B4B19680431B8
:103030000B48FFF7C1F8F5E70A4B1868064B19680B
:103040000431FFF7C4F8084B1B68A342EAD9064BCA
:103050001C60E7E7881E0020941900209C190020BE
:10306000601E002098190020401E002070B586B018
:103070000B9D0C9C85B1C4B14FF491660496049EDF
:10308000B6F5916F1AD04FF0500383F31188BFF358
:103090006F8FBFF34F8FFEE74FF0500383F311881C
:1030A000BFF36F8FBFF34F8FFEE74FF0500383F3F3
:1030B0001188BFF36F8FBFF34F8FFEE7049E256328
:1030C000022584F8855400250395029405AD0195E9
:1030D0000A9D0095FFF72AFE2046FFF7D9FE0598C6
:1030E00006B070BD2DE9F04385B00746884614460A
:1030F0001E469000FFF7AAFA08B381464FF491608C
:10310000FFF7A4FA0546B0B1C0F83090E5B100234E
:1031100085F88534039302950D9B01930C9B0093D6
:103120003346224641463846FFF700FE2846FFF761
:10313000AFFE012005E04846FFF78CFAE6E74FF0C6
:10314000FF3005B0BDE8F0834FF0FF30F9E7000035
:1031500010B588B000240594069407AA06A905A80E
:10316000FFF704F8059B0293069B01930094234606
:10317000079A1A491A48FFF779FF48B100F05CFB3B
:103180000346012B06D0B3F1FF3F1DD008B010BDA0
:103190000023F6E74FF0500383F31188BFF36F8FDE
:1031A000BFF34F8F0F4B1B6858330F4A13600F4B01
:1031B0004FF0FF321A600E4B01221A600D4B0022B5
:1031C0001A60FFF739F9E1E74FF0500383F31188F4
:1031D000BFF36F8FBFF34F8FFEE700BFB09C0008B7
:1031E000C92F00089419002014000020401E002060
:1031F0005C1E0020881E0020024A13680133136001
:10320000704700BF0C1E0020014B1868704700BFBC
:10321000881E0020F8B53A4B1B68002B65D1394B4E
:103220001D6801351D60C5B9374B1B681B6843B16C
:103230004FF0500383F31188BFF36F8FBFF34F8FAD
:10324000FEE7314A1168314B186810601960304A46
:10325000136801331360FFF753FD2E4B1B68AB421D
:103260000CD900242C4B1B68DB6A03EB83039A0008
:103270002A4B9B58012B3DD901243BE0002416E04A
:10328000244B4FF0FF321A60ECE7224A1360E9E763
:1032900003EB83039A00394620481044FEF78CFF65
:1032A000F26A1D4B1B68DB6A9A4200D30124164B5D
:1032B0001B681B68002BE3D0134B1B68DB68DE68C0
:1032C00073689D42E1D3371D3846FEF799FFB36A14
:1032D0001BB106F11800FEF793FFF36A104A12685B
:1032E0009342D5D90E4A1360D2E70E4A13680133D0
:1032F000136000240C4B1B6803B101242046F8BD69
:103300000C1E0020881E0020981900209C19002007
:10331000441E0020401E002094190020A019002007
:10332000141E0020081E00208C1E002038B5344BCF
:103330001B6843B94FF0500383F31188BFF36F8FBD
:10334000BFF34F8FFEE7FEF7D5FF2D4B1A68013A0A
:103350001A601B68002B4DD12A4B1B680BB9002447
:1033600049E00024284B1B681BB3274BDB68DC6853
:1033700004F11800FEF744FF251D2846FEF740FF24
:10338000E06A224B1B68984201D9204B186000EB81
:10339000800029461E4B03EB8000FEF70DFFE26A1A
:1033A0001C4B1B68DB6A9A42DCD31B4B01221A6060
:1033B000D8E70CB1FFF7A4FC184B1C6874B9164B86
:1033C0001C68C4B1164B4FF080521A60BFF34F8F88
:1033D000BFF36F8F01240EE0013C07D0FFF71AFF07
:1033E0000028F9D00C4B01221A60F5E70B4B0022A4
:1033F0001A60E4E70024FEF79FFF204638BD00BFB7
:103400000C1E0020001E0020481E0020141E00205C
:10341000A0190020941900208C1E0020081E0020F6
:1034200004ED00E010B5A8B104460F4B1B6843B192
:103430004FF0500383F31188BFF36F8FBFF34F8FAB
:10344000FEE7FFF7D9FE00212046FFF7D1FDFFF789
:103450006DFF38B9054B4FF080521A60BFF34F8FA4
:10346000BFF36F8F10BD00BF0C1E002004ED00E005
:10347000224B1B681BB1224B01221A607047204B64
:1034800000221A601F4B1B6803EB83018A001E4950
:103490008A585AB90BB1013BF6E74FF0500383F35A
:1034A0001188BFF36F8FBFF34F8FFEE710B403EBAC
:1034B000830082000A4450684068506003EB830434
:1034C000A200144608321144884211D003EB830253
:1034D00091000D4A0A445268D1680C4A11600949AA
:1034E0000B60136858330A4A13605DF8044B704749
:1034F0004068054A22445060E8E700BF0C1E0020E7
:103500008C1E0020141E0020A019002094190020F9
:103510001400002058B110B50C46094B1968183139
:10352000FEF755FE01212046FFF762FD10BD4FF06A
:10353000500383F31188BFF36F8FBFF34F8FFEE704
:103540009419002038B570B10C4615460A4B19681D
:103550001831FEF731FE0DB14FF0FF3429462046F9
:10356000FFF746FD38BD4FF0500383F31188BFF3DA
:103570006F8FBFF34F8FFEE79419002038B5C368F3
:10358000DC6824B304F118052846FEF739FE184B11
:103590001B682BBB251D2846FEF732FEE06A154B43
:1035A0001B68984201D9134B186000EB8000294634
:1035B000114B03EB8000FEF7FFFDE26A0F4B1B6827
:1035C000DB6A9A4211D901200D4B18600EE04FF0D2
:1035D000500383F31188BFF36F8FBFF34F8FFEE764
:1035E00029460848FEF7E8FDE7E7002038BD00BFA0
:1035F0000C1E0020141E0020A01900209419002089
:103600008C1E0020481E0020034B1B680360034BE8
:103610001B684360704700BF441E0020881E0020C6
:10362000F8B5C8B10C460546F9B1FEF763FE1B4B71
:1036300019686B68C81A2268B2F1FF3F26D02F685C
:10364000174E3668B74201D08B4224D9824215D832
:103650000023236001241AE04FF0500383F3118804
:10366000BFF36F8FBFF34F8FFEE74FF0500383F32D
:103670001188BFF36F8FBFF34F8FFEE75B1A1344C0
:1036800023602846FFF7C0FF002400E00024FEF777
:1036900053FE2046F8BD0124F9E700BF881E002034
:1036A000441E0020014B01221A6070478C1E00202E
:1036B000054B1B6833B1054B1B680BB100207047ED
:1036C00002207047012070475C1E00200C1E002065
:1036D00000283BD038B504461E4B1B68834208D0F7
:1036E0004FF0500383F31188BFF36F8FBFF34F8FF9
:1036F000FEE7036D43B94FF0500383F31188BFF326
:103700006F8FBFF34F8FFEE7013B0365C16AC26C49
:1037100091421DD00BB1002038BD051D2846FEF793
:103720006FFDE06CE062C0F13803A3610A4B1B68D7
:10373000984201D9084B186000EB80002946074BDE
:1037400003EB8000FEF738FD0120E5E7002070471D
:103750000020E1E794190020141E0020A019002089
:10376000064B1A6813682BB90123036023B9D36889
:10377000186870470023F8E700207047901E00206B
:1037800008B54160006191420CD8D21A83699A420F
:1037900001D3012008BD011D094B1868FEF717FD74
:1037A0000020F7E79A4201D2994206D2011D054B4B
:1037B0001868FEF70CFD0020ECE70120EAE700BFE7
:1037C000941E0020901E002030B583B0FEF792FDBD
:1037D000114B1B681BB1FEF7AFFD03B030BD0F4DA1
:1037E0002846FEF7DBFC0E4C2046FEF7D7FC0D4BBF
:1037F0001D600D4B1C60002300930C4B0C4A1021E4
:103800000A20FFF71EF8044B18600028E3D009498E
:10381000FFF738FADFE700BFB41F0020381F002091
:103820004C1F0020901E0020941E0020641F0020CA
:10383000981E0020B89C000810B588B0FFF7C4FFA0
:10384000124B1B68CBB100240594069407AA06A965
:1038500005A8FEF797FC059B0293069B01930223A4
:1038600000932346079A0A490A48FFF7FFFB0A4AD2
:10387000106010B1012008B010BD4FF0500383F369
:103880001188BFF36F8FBFF34F8FFEE7B41F002087
:10389000C09C00089D3B0008B81F0020C0B110B5B7
:1038A00084B014461A4603461648006838B300919F
:1038B0000194029305291CDCFFF7FAFE022810D0C0
:1038C00000231A4669460F480068FFF705F814E020
:1038D0004FF0500383F31188BFF36F8FBFF34F8F07
:1038E000FEE70023069A694606480068FEF7F4FFE3
:1038F00003E000236946FFF7AFF804B010BD0020D5
:10390000FBE700BFB41F002070B582B01B4B1B68E3
:103910001A6862B3DB681E68DC68251D2846FEF75E
:103920006FFC236A2046984794F8283013F0040F60
:10393000ECD0A36933449E4207D2636024612946D8
:103940000E4B1868FEF743FCE0E7002100910B46A0
:1039500032462046FFF7A2FF0028D7D14FF0500390
:1039600083F31188BFF36F8FBFF34F8FFEE7044AD5
:10397000106802490860136002B070BD901E0020FC
:10398000941E002038B50546FFF73EFC0446074B61
:103990001B68834205D800232B60044B1C60204623
:1039A00038BDFFF7B1FF01232B60F6E7601F002051
:1039B00070B582B005460E46174B1B68DB68DC68A5
:1039C000201DFEF71DFC94F8283013F0040F08D1D9
:1039D00023F0010384F82830236A2046984702B078
:1039E00070BDA1692B46324629442046FFF7C8FE28
:1039F0000028F1D0002100910B462A462046FFF70F
:103A00004DFF0028E8D14FF0500383F31188BFF336
:103A10006F8FBFF34F8FFEE7901E002070B582B00E
:103A200006460C46FFF7E8FB01A8FFF7ABFF019B3A
:103A300023BB05460CB9B04217D224B1114A126813
:103A40001268CAB901242246711B0F4B1868FFF790
:103A50002DF9FFF76BFC98B90C4B4FF080521A60B0
:103A6000BFF34F8FBFF36F8F0AE0FFF75FFC29466C
:103A70003046FFF79DFF03E01C46E4E7FFF756FCE6
:103A800002B070BD941E0020B41F002004ED00E0C1
:103A900010B588B006E007990698059B9847049BE7
:103AA000002B0BDA002204A93B4B1868FFF73CF807
:103AB00000286FD0049B002BF1DAECE7069C6369C9
:103AC00013B1201DFEF79CFB03A8FFF75BFF049BCF
:103AD000092BE7D8DFE803F0050505303750050569
:103AE000303794F8283043F0010384F82830059BE0
:103AF000A169024619442046FFF742FE0028D1D0B2
:103B0000236A2046984794F8283013F0040FC9D050
:103B1000A269002100910B46059802442046FFF758
:103B2000BDFE0028BED14FF0500383F31188BFF3D0
:103B30006F8FBFF34F8FFEE794F8283023F0010317
:103B400084F82830AEE794F8283043F0010384F875
:103B500028300599A16131B103460246014420464F
:103B6000FFF70EFE9EE74FF0500383F31188BFF37B
:103B70006F8FBFF34F8FFEE794F8283013F0020FDA
:103B800004D023F0010384F828308BE72046FEF7A9
:103B900061FD87E708B010BDB41F002000B583B0F9
:103BA00001A8FFF7DDFD0199FFF738FFFFF770FF70
:103BB000F6E70000DFF834D0002103E00C4B5B583F
:103BC000435004310B480C4B42189A42F6D30B4A2F
:103BD00002E0002342F8043B094B9A42F9D3FDF777
:103BE0001FFC00F017F8FDF761FB70470000012093
:103BF000D4A0000800000020C0090020C009002057
:103C000018200020FEE70000014B1868704700BF35
:103C10001400002070B50D4E0D4D761BB61006D069
:103C2000002455F8043B01349847A642F9D1094EC7
:103C3000094D761B05F0ECFFB61006D0002455F8B0
:103C4000043B01349847A642F9D170BDC8A00008D2
:103C5000C8A00008D0A00008C8A00008024B014678
:103C6000186800F00BB800BF14000020024B01469A
:103C7000186803F0F9B900BF140000202DE9F04FD7
:103C800001F10B05162D83B0064624D8102900F249
:103C9000B780FEF7C7FC102502211823DFF8F08457
:103CA0004344A3F108025C68944200F0B580636865
:103CB00023F003032344D4E902515A68E96042F037
:103CC000010230468D605A60FEF7BCFC0834204685
:103CD00003B0BDE8F08F35F0070500F19180A942EF
:103CE00000F28E80FEF79EFCB5F5FC7FC0F090815F
:103CF0006B0A00F08C80042B00F26681AB0903F1A3
:103D0000390103F13807CB00DFF884844344A3F181
:103D100008005C68A04206D10CE0002A80F22281F3
:103D2000E468A04206D0636823F003035A1B0F2AFD
:103D3000F3DD3946D8F81040DFF858C4644577D031
:103D4000626822F00302531B0F2B00F36F81002BDC
:103D5000C8E904CC80F26081B2F5007F80F0108168
:103D6000D3080133500901228240D8F8040058F8E2
:103D70003370A76008EBC30E0243AEF10800E060A9
:103D8000C8F8042048F83340FC608B1001209840AC
:103D9000904254D8104206D121F003014000104255
:103DA00001F10401FAD008EBC1094C468E46E768E0
:103DB000BC4207D114E1002B80F21B81FF68BC429A
:103DC00000F00E817A6822F00302531B0F2BF2DD04
:103DD000D7E902E4791945F001057D6043F001055A
:103DE000CEF80C403046C4F808E0C8E90411C1E937
:103DF00002CC4D60BB50FEF725FC07F1080402E041
:103E00000C2333600024204603B0BDE8F08F4FF44C
:103E1000007340213F2777E7DC68A34208BF0231E7
:103E20007FF445AFD8F81040DFF868C3644587D108
:103E3000D8F804208B10012098409042AAD9D8F8D5
:103E40000840676827F00307BD4202D87B1B0F2B91
:103E500077DCDFF84493CA4BD9F800201B680132A5
:103E60002B4404EB070A00F02E8103F580530F3337
:103E700023F47F6B2BF00F0B59463046FEF792FB75
:103E8000411C024600F0EB80824500F2E680BD4B0B
:103E9000196859441960084600F04B81D9F80010A0
:103EA000019301311BBFA2EB0A0A5044C9F800205C
:103EB000186012F0070A00F01481CAF108010A44E0
:103EC000CAF5805193440831A1EB0B01C1F30B09F2
:103ED000494630460092FEF765FB421CDDE90023AF
:103EE00000F05C81801A00EB090B1968C8F8082003
:103EF0004BF00100494444455060196000F02681B0
:103F00000F2F40F2258160680C3F27F0070700F073
:103F1000010004EB070C38434FF0050E0F2F6060D3
:103F2000CCE901EE00F2428150681446964B1A68C3
:103F30008A4238BF1960954B1A688A4238BF1960A7
:103F400090E0621943F0010345F0010565603046D9
:103F5000C8F808205360FEF775FB0834204603B00C
:103F6000BDE8F08F2344E1685A68A56842F0010279
:103F7000E96030468D605A60FEF764FB083442E722
:103F8000B2F5206F4FEA522361D3142B00F2BA80AE
:103F900003F15C00C0005B3308EB000758F8000039
:103FA000083F874200F09280436823F00303934266
:103FB00002D980688742F7D1C768D8F80420C4E9DD
:103FC0000207BC60C460E0E6142B59D9542B00F200
:103FD000A1802B0B03F16F0103F16E07CB0093E679
:103FE0000EF1010E1EF0030F04F108047FF4DFAEA2
:103FF00051E03A443C465368F96854F8085F43F08E
:10400000010353603046E9608D60FEF71BFBFAE662
:10401000E90805F1080341E622443046536843F0BD
:10402000010353600834FEF70DFBECE6611943F021
:10403000010745F0010565603046C8E90411C1E992
:1040400002CC4F60A350FEF7FDFA0834DBE693097B
:1040500003F13900C00038339EE7444564D0D8F8F6
:104060000840606820F0030B5D45ABEB050302D808
:104070000F2B3FF766AF3046FEF7E4FA0024C2E6A6
:1040800003F15C0103F15B07CB003DE659F8083909
:104090004B4540F0AA8011F0030F01F1FF31F5D13B
:1040A000D8F8043023EA0003C8F8043040009842EE
:1040B0003FF6C5AE18B9C2E640000EF1040E184234
:1040C000FAD071466FE603F1100BD5E69A104FF067
:1040D000010ED8F804300EFA02F21A43C8F8042090
:1040E0006DE702EB0B014942C1F30B09494630462B
:1040F0000092FEF757FA431CDDE900237FF4F2AE8D
:10410000D146F2E6542B26D8130B03F16F00C00002
:104110006E3341E7B3F5AA7F26D8EB0B03F17801A4
:1041200003F17707CB00EFE5164B18685844186089
:10413000B4E6CAF30B0CBCF1000F7FF4AFAED8F8B5
:104140000840BB444BF001006060EFE61446EDE62A
:10415000012353608FE7B3F5AA7F33D8D30B03F164
:104160007800C000773317E740F25452934233D8B7
:10417000AB0C03F17D0103F17C07CB00C4E500BF6C
:10418000EC1F0020BC1F0020E41F0020E81F0020BF
:10419000400400204804002048080020AAF1080A32
:1041A000D344ABEB020B4FF000099EE604F108018B
:1041B0003046009302F058FFD8F80840009B606832
:1041C0001968B3E640F2545083420AD8930C03F1C5
:1041D0007D00C0007C33DFE64FF47E737F217E27B5
:1041E00092E54FF47E707E23D6E6D8F804305DE782
:1041F000F0B4860746D0541E002A3CD0CAB203460B
:1042000001E0013C37D303F8012B9D07F9D1032CC2
:104210002AD9CDB245EA05250F2C45EA054534D902
:10422000A4F1100222F00F0C03F1200716096744D5
:1042300003F1100242E9045542E902551032BA4234
:10424000F8D1721C14F00C0F03EB021204F00F06ED
:1042500013D0331F23F003030433134442F8045BE9
:104260009342FBD106F003042CB1CAB21C4403F8FC
:10427000012B9C42FBD1F0BC704734461346002C06
:10428000F3D1F8E714460346C1E71A462646E0E7AD
:1042900038B50C460968054609B1FFF7F9FF214614
:1042A0002846BDE8384002F0DFBE00BF1F4B1B6848
:1042B00083423AD0C16C70B5054681B100268C5955
:1042C0003CB121462468284602F0CEFE002CF8D1ED
:1042D000E96C0436802EF2D1284602F0C5FE296C26
:1042E00011B1284602F0C0FED5F8484154B105F599
:1042F000A676B44206D021462468284602F0B4FED1
:10430000A642F8D1696D11B1284602F0ADFEAB6B43
:1043100053B1EB6B28469847D5F8E01221B12846F7
:10432000BDE87040FFF7B4BF70BD704714000020B7
:104330000CB430B51F4B00291C689DB035DB4FF421
:104340000273ADF814300290069021AB18D00139F9
:10435000209A049107914FF6FF7502A92046019318
:10436000ADF8165000F028F8421C01DA8B232360C8
:10437000029B00221A701DB0BDE8304002B07047A9
:1043800004910791209A01934FF6FF7502A92046E8
:10439000ADF8165000F010F8431C01DA8B232360AF
:1043A0001DB0BDE8304002B070478B2323604FF052
:1043B000FF30F5E7140000202DE9F04F2DED068BBE
:1043C000CFB08B4617460893814602F051FF036831
:1043D00011931846FCF794F9BBF80C3010901E06A8
:1043E00004D5DBF81030002B01F0188000239FED7E
:1043F000747BCDE92333CDE91333CDE915330C9329
:104400001293049325AB229398463B788DED0E7B57
:1044100009EE10BA002B00F059813C4604E014F874
:10442000013F002B00F0A880252BF8D1E51B40F0C0
:10443000A6802378002B00F04981002305938DF896
:104440006B300293661C4FF0FF33647803932B2587
:104450004FF0200A0136A4F120035A2B00F2B48059
:10446000DFE813F09402B200B2008E02B200B20094
:10447000B2006A00B200B200F2010302B200FD0114
:10448000A302B2009D025B005B005B005B005B006F
:104490005B005B005B005B00B200B200B200B200E8
:1044A000B200B200B2004901B2009501C602490152
:1044B00049014901B200B200B200B2008802B20064
:1044C000B2000702B200B200B200A301B20078024B
:1044D000B200B200BC07B200B200B200B200B2003B
:1044E000B200B200B2004901B2009501C901490110
:1044F000490149013A02C9018400B2005B02B200DD
:104500004302B50764028400B200A3018200B80729
:10451000B200B2009307B2008200A4F1300300227F
:1045200016F8014B02EB820203EB4202A4F13003C6
:10453000092BF5D905928EE7484602F099FE4368AB
:1045400015931846FCF7DCF8034648461C461693BC
:1045500002F08EFE8268139234B1139B23B1139B39
:104560001B78002B41F09181347873E7029B3478FB
:1045700043F0200302936DE7E51B00F0A780DDE91F
:10458000233201332A44072BCDE92332C8F80070C7
:10459000C8F8045006DC08F10808049A23782A4475
:1045A000049247E719EE101A22AA484603F05CFA73
:1045B000002841F0EF830DF19408EEE7AFF300809F
:1045C00000000000000000000996002C7ED00023AF
:1045D0001A464FF0010A8DF8D4408DF86B300792DF
:1045E00003920A920D920B92CDF818A035AF029B60
:1045F000029913F0020318BF0AF1020A11F0840BAA
:1046000005D10599A1EB0A06002E00F3B583249D80
:1046100072B1239A013201350DF16B000121072A95
:10462000CDE92325C8E9000100F3E58308F1080876
:104630006BB1239B013302351BA90222072BCDE965
:104640002335C8E9001200F3E58308F10808BBF13F
:10465000800F00F09B82039B069A9E1A002E00F3A7
:10466000DD82029BDB0500F13582239B069AC8F8A8
:10467000007001331544072B2495C8F804202393B8
:1046800000F3598308F10808029B590705D5059BDB
:10469000A3EB0A04002C00F3CA83DDE9043252457F
:1046A000ACBF9B1853440493002D40F0F4820023C8
:1046B0002393079B1BB10799484602F0D5FC0DF1E7
:1046C0009408099F3B78002B7FF4A7AE249B19EE3A
:1046D00010BA002B41F0B482BBF80C3013F0400F3D
:1046E000049B18BF4FF0FF33049304984FB0BDEC08
:1046F000068BBDE8F08F089B0996073323F007036C
:10470000B3EC027B8DED0E7BDDE90E56089326F0AF
:1047100000430AEE903A0AEE105A5BEC1AABB04B2B
:10472000504659464FF0FF32FCF7AEFC002840F0EF
:104730000B85AB4B4FF0FF3250465946FCF786FCD9
:10474000002840F001850022002328463146FCF76E
:1047500073FC002841F071809DF86B20A14FA24BA3
:10476000029800214FF0030A20F080000791029088
:10477000472CC8BF1F46CDF818A003910A910D9190
:104780000B91002A3FF433AF0AF1010A2FE7089B8F
:10479000099653F8042B8DF8D42000210A464FF0D7
:1047A000010A08938DF86B1019E7089D099655F8D2
:1047B000047B00268DF86B60002F00F03F86039A83
:1047C0001346013300F0F28731463846FBF730FFDD
:1047D0000790002801F04881079B0396DA1B069298
:1047E000334622EAE27A08959DF86B2007930A93F4
:1047F0000D930B93C5E7029B09969D0640F101813D
:10480000089B073323F007031946F1E802230891B8
:1048100092469B46002A73F10003C0F20381039B7A
:10482000013300F06C85029B23F080055AEA0B03EC
:1048300040F09182039B002B40F09482029500236C
:10484000039306934EAF18E1089B53F8042B05928F
:10485000002A80F25684059A089352420592029BE0
:10486000347843F004030293F4E534788DF86B5008
:10487000F0E5029B099643F010030293029B990610
:1048800040F10C84089B073323F00703F3E802ABE5
:104890000893029B23F48065002300228DF86B208F
:1048A000039A1146013100F0CD8025F0800102917C
:1048B0005AEA0B0140F04B82002A40F02387002B7C
:1048C000BDD115F00103069300F01F8430238DF84D
:1048D00037310DF23717D0E03478029B682C00F0A6
:1048E000968543F040030293B4E5029B09969E0629
:1048F00000F1F984029BDD0600F10A87029B5C0649
:1049000000F1D487029B980540F10287089B049927
:1049100053F8042B08931170D3E63478029B6C2C67
:1049200000F06E8543F01003029393E5089B09960F
:1049300047F6300153F8042BADF86C100299089338
:104940002A4B129341F0020592464FF0000B0223CE
:104950007824A2E7029B099643F01005AF0640F1C8
:104960008D83089B073323F00703F3E802AB08931A
:10497000012392E7029B347843F00803029369E530
:10498000029B347843F00103029363E59DF86B309A
:10499000002B7FF4E9AD34788DF86BA05AE5029BCB
:1049A000347843F08003029354E5324612F8014B09
:1049B0002A2C01F07782A4F13003092B164698BF08
:1049C000002201F2398116F8014B02EB820203EB5F
:1049D0004202A4F13003092BF5D903923BE500BF55
:1049E000FFFFEF7FCC9C0008D09C0008DC9C0008F7
:1049F000029B099643F010030293029B9D063FF52C
:104A0000FFAE029BD80640F18A83089B53F8042B23
:104A100008934FEAE27B5B46002A73F1000392465B
:104A2000BFF6FDAE039A029DDAF1000A11464FF07F
:104A30002D036BEB4B0B01318DF86B304FF0010305
:104A40007FF433AF012B00F08681022B4EAF22D1D1
:104A500012984FEA1A130AF00F0143EA0B734FEA58
:104A60001B129A469346435C07F8013D5AEA0B0332
:104A7000EFD14EABDB1B02950693002303990793FE
:104A80000A930D930B93069B9DF86B208B42B8BF46
:104A90000B469A4675E64FEADA0242EA4B724FEA53
:104AA000DB010AF007038B46924630335AEA0B01CA
:104AB0003A4607F8013DEED1E907DAD5302BD8D0D8
:104AC0003023023A07F8013C4EAB9B1A029506933D
:104AD0001746D2E7652C40F3EA80DDE90E0100229B
:104AE0000023FCF79FFA002800F0E381239BD34AC0
:104AF000C8F80020013301350122072BCDE9233509
:104B0000C8F8042000F3C68508F108081C9B0C9A1D
:104B1000934280F2F182239B119AC8F80020109AE8
:104B2000C8F8042001331544072B2495239300F380
:104B3000598408F108080C9B5C1E002C7FF7A4AD7B
:104B4000102C239BDFF8FCB240F3B5855F4610269E
:104B500019EE10BA05E008F10808103C102C40F3DB
:104B6000A98501331035072BCDE92335C8E9007637
:104B7000F1DD22AA5946484602F076FF002840F0AF
:104B80001D82DDE923350DF19408E6E7059BA3EBD3
:104B90000A06002E7FF75FAD102E239ADFF8A4B22D
:104BA00029DD58462946A34619EE105A102304461B
:104BB00004E0103E102E08F1080818DD0132103113
:104BC000072ACDE92321C8E90043F2DD22AA2946BC
:104BD000484602F049FF002840F0EF81103E102EB9
:104BE000DDE923210DF194084FF01003E6DC2346A4
:104BF0000D465C469B4601323544072ACDE9232504
:104C0000C8F800B0C8F8046000F36E85039B069AEC
:104C10009E1A002E08F108087FF723AD102E239A64
:104C2000DFF820B229DD58462946A34619EE105A6E
:104C30001023044604E0103E102E08F1080818DD89
:104C400001321031072ACDE92321C8E90043F2DD02
:104C500022AA2946484602F007FF002840F0AD810D
:104C6000103E102EDDE923210DF194084FF01003C2
:104C7000E6DC23460D465C469B4601323544072A56
:104C8000CDE92325C8F800B0C8F8046000F3E88136
:104C900008F10808E5E419EE101A22AA484602F0C5
:104CA000E3FE00283FF403AD19EE10BA86E10C9B39
:104CB000239C012B40F38C81013401350123072C07
:104CC000CDE92345C8F80070C8F8043000F3F88136
:104CD00008F10808109B119A01341D44072CCDE9F6
:104CE0002345C8E9002300F3F98108F108080023EF
:104CF000DDE90E010022FCF795F90C9B002840F03D
:104D00008581013B013401371D44072CCDE9234542
:104D1000C8F80070C8F8043000F36A8108F1080888
:104D2000149A013415441EAB072CCDE92345C8E97C
:104D300000327FF7A7AC19EE101A22AA484602F0FB
:104D400093FE0028B0D1249D0DF194089CE4012B22
:104D5000029D7FF47AAEBBF1000F08BFBAF10A0FD3
:104D600080F0D5820AF1300A01238DF837A102952F
:104D700006930DF2371780E6102EDDE9232129DD99
:104D80001793102543460846B846274619EE104AA1
:104D900004E0103E102E03F1080316DD013228490D
:104DA0001030072ACDE92320C3E90015F1DD22AA3E
:104DB0002146484602F058FE002840F05084103E3C
:104DC000102EDDE9232025ABE8DC3C46474698461B
:104DD000179B014601321A48C8F800008D19072AAE
:104DE000CDE92325C8F8046000F327849DF86B20E3
:104DF00008F108080CE419EE101A22AA4846179385
:104E000002F032FE00287FF44FAF249D179B0DF176
:104E100094080DE419EE101A22AA484602F024FE66
:104E200000287FF441AF249D0DF194080FE4102C6D
:104E3000239B26DD19EE107A10260AE00C9D00084F
:104E4000109D0008209D0008103C102C08F1080857
:104E500017DD0133BA4A1035072BCDE92335C8E9F0
:104E60000026F1DD22AA3946484602F0FDFD002861
:104E700040F01E84103C102CDDE923350DF1940820
:104E8000E7DC0133AE4AC8F800202544072BCDE902
:104E90002335C8F804407FF700AC19EE101A22AA97
:104EA000484602F0E1FD00287FF4FEAE249DFFF7A6
:104EB000F4BB1C9A002A40F38A83DDE90B3293424B
:104EC000A8BF1346002B1C460DDD239BC8F80070BD
:104ED00001332544072B2495C8F80440239300F39D
:104EE0005B8508F108080B9B002CA8BF1B1B002B3F
:104EF0001C4600F3B3820B9B3B449B46029B5E0522
:104F000000F1D3821C9B0C9A934203DB029AD407D4
:104F100040F1C284239A1199C8F800101099C8F87A
:104F2000041001320D44072A2495239200F34F8583
:104F300008F108080C9ABC18A4EB0B04D31A9C4285
:104F4000A8BF1C46002C0DDD239AC8F800B0013222
:104F50002544072A2495C8F80440239200F35B8671
:104F600008F10808002CACBF1C1B1C46002C7FF766
:104F70008BAB102C239BDFF8CCB140F39C835F46B6
:104F8000102619EE10BA05E008F10808103C102CA4
:104F900040F3908301331035072BCDE92335C8E961
:104FA0000076F1DD22AA5946484602F05DFD28B997
:104FB000DDE923350DF19408E8E7AB46079B002BAC
:104FC0003FF48AAB0799484602F04EF8FFF784BBDE
:104FD000029BD8073FF570AE013401350123072C41
:104FE000CDE92345C8F80070C8F804307FF796AEC5
:104FF00019EE101A22AA484602F036FD00287FF466
:1050000053AEDDE923450DF1940889E65E1E002EBE
:105010007FF786AE102EDFF82CB140F3BD83CDF8BC
:105020000CA0102719EE10AA05E008F10808103EA0
:10503000102E40F3AF8301341035072CCDE9234502
:10504000C8E900B7F1DD22AA5146484602F00CFD3E
:10505000002840F0FF85DDE923450DF19408E6E7DF
:1050600019EE101A22AA484602F0FEFC00287FF42E
:105070001BAE249D0DF19408FFF7F3BA089AEE06D3
:1050800052F8041B08924FF0010343D468063ED542
:105090001FFA81FA4FF0000BFFF7FFBB029BDA0605
:1050A00000F11881029B5B0640F18983089B53F84D
:1050B000042B08931FFA82FA4FF0000BFFF7E9BBAD
:1050C00019EE101A22AA484602F0CEFC00287FF4FE
:1050D000EBADDDE923450DF19408FBE519EE101A5F
:1050E00022AA484602F0C0FC00287FF4DDADDDE9CD
:1050F00023450DF19408FAE5029BDF077FF5C4AA6A
:1051000009E534780893FFF7A5B94EAFB5E4AA05D1
:1051100000F1D4838A464FF0000BFFF7BEBB029B21
:10512000590640F16983089B53F8042B08930FFA42
:1051300082FA4FEAEA7B52465B46FFF76BBB00BF41
:10514000109D0008209D0008DDE90E0102460B4677
:10515000FBF79AFF0546002840F00F86612C00F00F
:10516000C485412C00F0AD84039B24F020065A1C1A
:10517000069600F0C683472E00F0BC85DDE90E01DF
:10518000029A002942F480720A924FF00003C0F2A2
:10519000D28541EC180B17930793462E00F04384F9
:1051A000452E40F02384B0EE480AF0EE680A039BD7
:1051B00020A95D1C1DABCDE900312A461CAB0221A4
:1051C000484600F035FF074605440A9BDDF808B065
:1051D000029351EC180B00220023FBF723FF002859
:1051E00000F0CE832B46DB1B0C93069B472B00F075
:1051F0009983069B462B00F044841C9B0B930B9BCE
:10520000069A013B412A1C9300F0B185E2B20021CD
:10521000002BB8BF0B9B8DF87820BABFC3F10103F8
:105220002D222B22092B8DF8792040F3B9850DF121
:10523000870EDFF85CC475468CFB0321DA17C2EBDE
:10524000A10202EB8201A3EB41011E463031632E25
:10525000284605F8011C134605F1FF35ECDC303318
:10526000DAB2831E9E45294605F8012C40F23B86A2
:105270000DF17A0301E011F8012B03F8012B8E45A3
:10528000F9D10DF189030DF17A021B1A13441EAAFC
:105290009B1A14930C9B149A012B1A44069240F308
:1052A000E385069B109A1344069300232BF4806633
:1052B0000A930D930B93069B46F48072029223EAA5
:1052C000E37A179B002B40F054839DF86B200393E7
:1052D000FFF757BA089B53F8042B089392464FF0F8
:1052E000000BFFF7D6BA089B53F8041B0893049BE6
:1052F000DD171A462B46C1E90023FFF7E2B9BBF1DF
:10530000000F08BFBAF10A0F029DFFF42BAD05F4A0
:10531000806600230295CDF81880139DA0464EAFFD
:1053200034461E4609E0FAF76BFFBBF1000F08BFD9
:10533000BAF10A0F1FD382468B460A220023504639
:105340005946FAF75DFF94460CF1300C07F801CC92
:10535000504659460A2200230136013F002CE2D074
:1053600095F800C06645DED1FF2EDCD09B4508BF16
:10537000924580F067824EABDB1B44461395DDF807
:1053800018800C960693FFF778BBBC4B09961293D6
:10539000029B9F0640F10581089B073323F007031A
:1053A000F3E802AB0893029AD0070AD55AEA0B0336
:1053B00007D0302342F002028DF86D4002928DF842
:1053C0006C30029B23F480650223FFF766BA0996CE
:1053D000FFF754BA029D0996FFF7C0BAA84B099689
:1053E0001293D5E719EE101A22AA484602F03CFBA8
:1053F00000287FF459AC249D0DF19408FFF79BBB66
:1054000043F02003747802930136FFF723B843F486
:105410000073747802930136FFF71CB840214846A8
:10542000FEF72CFCCBF80000CBF81000002800F0B1
:1054300044854023CBF81430FEF7D8BF039B0A976E
:10544000062B28BF062303970D970B9707973A461D
:105450009A468C4F08950693FFF793B9102C239B1F
:10546000DFF824B240F3DB812A4610265D4619EEB0
:1054700010BA05E008F10808103C102C40F3CD816B
:1054800001331032072BCDE92332C8E90056F1DD94
:1054900022AA5946484602F0E7FA00287FF48EAD6A
:1054A000DDE923320DF19408E6E70C9BCDF818A056
:1054B0005E46DDF834B00B97FB1803934246DDF8E7
:1054C00058A0139F0A9B19EE108A2846BBF1000FC3
:1054D0002FD0002B30D1013F0BF1FF3B239B1599BF
:1054E000116001335044072B2490C2F804A0239389
:1054F00062DC083203993B788C1B9C42A8BF1C4697
:10550000002C0BDD239B166001332044072B2490D5
:105510005460239300F3DC803B780832002CACBF4E
:105520001C1B1C46002C0BDC1E440A9BBBF1000F0D
:10553000CFD1002B00F0E8810A9B013B0A93CDE715
:10554000102C23991FDD10250B4604E0103C102C75
:1055500002F1080216DD01334B491030072BCDE96B
:105560002330C2E90015F1DD22AA4146484602F087
:105570007BFA002840F08681103C102CDDE92330B6
:1055800025AAE8DC1946404B13604B1C2044072B2E
:10559000CDE92330546000F30D823B7808321E447D
:1055A000C3E7029BDE065CD5089B53F8042B0893E7
:1055B00092464FF0000BF6E622AA4146484602F01A
:1055C00053FA002840F05E81249825AA92E7239B95
:1055D0002E49C8F80010013301350121072BCDE910
:1055E0002335C8F8041000F33F8108F10808002AA9
:1055F00040F09680029B0C9A03F0010313433FF4A2
:1056000043A8239B119AC8F80020109AC8F80420D8
:1056100001331544072B2495239300F3558108F19A
:1056200008080C9A01331544072BCDE92335C8E946
:1056300000727FF727A8FFF77EBB19EE101A22AA87
:105640004846179302F010FA00287FF42DAB9DF81E
:105650006B20249D179B0DF19408FEF7D9BFA3463C
:10566000ACE4029B5D0640F1B980089B53F8042B23
:1056700008931FFA82FA4FF0000B94E6DC9C0008B6
:10568000F09C0008049D0008209D00080C9D000867
:105690006766666619EE101A22AA484602F0E4F917
:1056A00000287FF401AB249D0DF19408FFF72EBA7A
:1056B000BB4683E4BB4601332544072BC8F800B042
:1056C000CDE92335C8F804407EF7DCAFFFF733BBE4
:1056D00022AA4146484602F0C7F9002840F0D2808D
:1056E0003B78249825AA19E719EE101A22AA4846F1
:1056F00002F0BAF900287FF4D7AA249D0DF194088E
:10570000FEF7A9BF012B029D7FF49FA9FFF72ABBDB
:10571000089B049953F8042B11600893FEF7D1BF3E
:10572000239B1199C8F800101099C8F80410013390
:105730000D44072B2495239300F3C68008F1080835
:10574000002ABFF66EAF54421032DFF8FCB680F28A
:10575000B5822A4610265D4619EE10BA05E008F11A
:105760000808103C102C40F3A78201331032072B9D
:10577000CDE92332C8E90056F1DD22AA5946484650
:1057800002F072F900287FF419ACDDE923320DF143
:105790009408E6E7DDF80CA001343544072CCDE988
:1057A0002345C8E900B67FF7B9AA21E43846FAF7DD
:1057B000A7FF3346039602460690FFF712B8029BF6
:1057C00013F4007F089B53F8042B089314BF5FFA6F
:1057D00082FA92464FF0000BFFF75BB8029B13F47E
:1057E000007F089B53F8042B089314BF5FFA82FADA
:1057F00092464FF0000BD6E5029B13F4007F089B06
:1058000053F8042B3FF404A94FFA82FA4FEAEA7BDB
:10581000089352465B46FEF7FDBFAB461546013383
:105820002544072BCDE92335C8F800B0C8F804405B
:1058300059DC08F10808FFF75EBB2D228DF86B20BC
:10584000FEF78CBF169B1599FF1A1A46384602F0D0
:10585000D7F86B7803B101350A2200235046594628
:105860000026FAF7CDFC66E519EE101A22AA484682
:1058700002F0FAF800287FF417AA1C9A249D0DF173
:105880009408B4E6C346FFF799BB029B347843F40F
:1058900080630293FEF7DEBD0C9ABC18A4EB0B04E8
:1058A000D31A9C42A8BF1C46FFF75CBB089B049917
:1058B00053F8042B08931180FEF703BF5FFA81FAB7
:1058C0004FF0000BFEF7E9BF19EE101A22AA484666
:1058D00002F0CAF800287FF4E7A9DDE923351C9A15
:1058E0000DF194082CE719EE101A22AA484602F08E
:1058F000BBF800287FF4D8A9249D0DF19408FFF788
:10590000FABA0623039339E41397DDE90B73FB1806
:105910009E42B346DDF818A00546904628BF9B4638
:10592000FFF7F0BA1C9B0B93DA1C02DB039A93423D
:1059300004DD023C24F02003069360E4DDE90B3132
:105940008B42C0F2B4801BF0010F00F03882109A35
:10595000134406931BF4806F03D00B9B002B00F3C2
:105960003882069B672423EAE37A00230A930D9387
:10597000A7E42D2200238DF86B200393FEF704BFCC
:10598000209BAB42BFF42FAC30215A1C20921970DF
:10599000209B9D42F9D826E419EE101A22AA484607
:1059A00002F062F800287FF47FA9249D0DF194088D
:1059B000FFF799BA22AA4146484602F055F8002856
:1059C0007FF460AF3B78249825AA1E44ADE519EE1C
:1059D000101A22AA484602F047F800287FF464A96A
:1059E0001C9B249D0DF19408FFF7A4BA20AA1DABBF
:1059F000CDE90032B0EE480AF0EE680A039A1CAB1B
:105A00000221484600F014FB472E07461AD1029B9C
:105A1000DA0700F122810A9A029247229B460692F7
:105A2000209BFFF7E0BB20AA1DABCDE90032B0EE12
:105A3000480AF0EE680A039A1CAB0321484600F0BE
:105A4000F7FA0746039B462E07EB03057FF4BDAB31
:105A50003B78302B00F0FA811C9BDDF808B01D4428
:105A60000A9B0293FFF7B5BBDDF80CA09DF86B20F5
:105A7000CDF818A0039008950A900D900B90FEF7B2
:105A800080BE1C9A0B92002A40F3F78103990BF019
:105A900001030B4340F096810B9B069366241BF495
:105AA000806F40F09781069B23EAE37A5DE70C9BC9
:105AB000109A9A180B9B0692002B40F3B081672432
:105AC000EDE730238DF86C3058238DF86D30029B54
:105AD00043F00205039B632B00F3E480002307934C
:105AE00035AFDDE90E01029A029542F4817224F08D
:105AF000200600290A920696C0F28280002341EC1B
